{
  "contractName": "Paper",
  "abi": [
    {
      "inputs": [],
      "stateMutability": "nonpayable",
      "type": "constructor"
    },
    {
      "anonymous": false,
      "inputs": [
        {
          "indexed": true,
          "internalType": "address",
          "name": "previousOwner",
          "type": "address"
        },
        {
          "indexed": true,
          "internalType": "address",
          "name": "newOwner",
          "type": "address"
        }
      ],
      "name": "OwnershipTransferred",
      "type": "event"
    },
    {
      "anonymous": false,
      "inputs": [
        {
          "indexed": false,
          "internalType": "uint256",
          "name": "id",
          "type": "uint256"
        },
        {
          "indexed": false,
          "internalType": "string",
          "name": "ipfs",
          "type": "string"
        }
      ],
      "name": "PaperforValuator",
      "type": "event"
    },
    {
      "anonymous": false,
      "inputs": [
        {
          "indexed": false,
          "internalType": "uint256",
          "name": "_paperId",
          "type": "uint256"
        },
        {
          "indexed": false,
          "internalType": "address payable",
          "name": "addr",
          "type": "address"
        },
        {
          "indexed": false,
          "internalType": "address payable",
          "name": "addr2",
          "type": "address"
        }
      ],
      "name": "paperSubmitted",
      "type": "event"
    },
    {
      "inputs": [],
      "name": "owner",
      "outputs": [
        {
          "internalType": "address",
          "name": "",
          "type": "address"
        }
      ],
      "stateMutability": "view",
      "type": "function"
    },
    {
      "inputs": [],
      "name": "paperCount",
      "outputs": [
        {
          "internalType": "uint256",
          "name": "",
          "type": "uint256"
        }
      ],
      "stateMutability": "view",
      "type": "function"
    },
    {
      "inputs": [
        {
          "internalType": "uint256",
          "name": "",
          "type": "uint256"
        }
      ],
      "name": "papers",
      "outputs": [
        {
          "internalType": "uint256",
          "name": "pid",
          "type": "uint256"
        },
        {
          "internalType": "string",
          "name": "ipfsHash",
          "type": "string"
        },
        {
          "internalType": "address",
          "name": "college",
          "type": "address"
        },
        {
          "internalType": "address payable",
          "name": "student",
          "type": "address"
        },
        {
          "components": [
            {
              "internalType": "address payable",
              "name": "valuator",
              "type": "address"
            },
            {
              "internalType": "bool",
              "name": "isValuated",
              "type": "bool"
            },
            {
              "internalType": "uint256",
              "name": "marks",
              "type": "uint256"
            }
          ],
          "internalType": "struct Paper.Valuator",
          "name": "val1",
          "type": "tuple"
        },
        {
          "components": [
            {
              "internalType": "address payable",
              "name": "valuator",
              "type": "address"
            },
            {
              "internalType": "bool",
              "name": "isValuated",
              "type": "bool"
            },
            {
              "internalType": "uint256",
              "name": "marks",
              "type": "uint256"
            }
          ],
          "internalType": "struct Paper.Valuator",
          "name": "val2",
          "type": "tuple"
        },
        {
          "internalType": "address payable",
          "name": "reviewer",
          "type": "address"
        },
        {
          "internalType": "uint256",
          "name": "reviewermarks",
          "type": "uint256"
        },
        {
          "internalType": "bool",
          "name": "raiseDispute",
          "type": "bool"
        },
        {
          "internalType": "bool",
          "name": "acceptedValidation",
          "type": "bool"
        },
        {
          "internalType": "enum Paper.State",
          "name": "state",
          "type": "uint8"
        }
      ],
      "stateMutability": "view",
      "type": "function"
    },
    {
      "inputs": [],
      "name": "renounceOwnership",
      "outputs": [],
      "stateMutability": "nonpayable",
      "type": "function"
    },
    {
      "inputs": [
        {
          "internalType": "address",
          "name": "newOwner",
          "type": "address"
        }
      ],
      "name": "transferOwnership",
      "outputs": [],
      "stateMutability": "nonpayable",
      "type": "function"
    },
    {
      "inputs": [],
      "name": "valuatorCount",
      "outputs": [
        {
          "internalType": "uint256",
          "name": "",
          "type": "uint256"
        }
      ],
      "stateMutability": "view",
      "type": "function"
    },
    {
      "inputs": [
        {
          "internalType": "address",
          "name": "_collegeAddress",
          "type": "address"
        }
      ],
      "name": "addColleges",
      "outputs": [],
      "stateMutability": "nonpayable",
      "type": "function"
    },
    {
      "inputs": [
        {
          "internalType": "address payable",
          "name": "_valuatorAddress",
          "type": "address"
        }
      ],
      "name": "addValuators",
      "outputs": [],
      "stateMutability": "nonpayable",
      "type": "function"
    },
    {
      "inputs": [
        {
          "internalType": "address payable",
          "name": "_studentAddress",
          "type": "address"
        },
        {
          "internalType": "string",
          "name": "_ipfsHash",
          "type": "string"
        }
      ],
      "name": "addPaper",
      "outputs": [],
      "stateMutability": "nonpayable",
      "type": "function"
    },
    {
      "inputs": [
        {
          "internalType": "uint256",
          "name": "_paperId",
          "type": "uint256"
        },
        {
          "internalType": "uint256",
          "name": "marks",
          "type": "uint256"
        }
      ],
      "name": "addMarks",
      "outputs": [],
      "stateMutability": "nonpayable",
      "type": "function"
    },
    {
      "inputs": [],
      "name": "getAssignedPapers",
      "outputs": [],
      "stateMutability": "nonpayable",
      "type": "function"
    },
    {
      "inputs": [
        {
          "internalType": "uint256",
          "name": "_paperId",
          "type": "uint256"
        },
        {
          "internalType": "uint256",
          "name": "_marks",
          "type": "uint256"
        }
      ],
      "name": "reviewerSubmit",
      "outputs": [],
      "stateMutability": "nonpayable",
      "type": "function"
    },
    {
      "inputs": [
        {
          "internalType": "uint256",
          "name": "_paperId",
          "type": "uint256"
        }
      ],
      "name": "getResultForStudent",
      "outputs": [
        {
          "internalType": "uint256",
          "name": "",
          "type": "uint256"
        },
        {
          "internalType": "uint256",
          "name": "",
          "type": "uint256"
        },
        {
          "internalType": "uint256",
          "name": "",
          "type": "uint256"
        }
      ],
      "stateMutability": "view",
      "type": "function"
    },
    {
      "inputs": [
        {
          "internalType": "uint256",
          "name": "_id",
          "type": "uint256"
        }
      ],
      "name": "getStateForStudent",
      "outputs": [
        {
          "internalType": "uint256",
          "name": "",
          "type": "uint256"
        }
      ],
      "stateMutability": "view",
      "type": "function"
    },
    {
      "inputs": [
        {
          "internalType": "uint256",
          "name": "_paperId",
          "type": "uint256"
        }
      ],
      "name": "getPaperForStudent",
      "outputs": [
        {
          "internalType": "string",
          "name": "",
          "type": "string"
        }
      ],
      "stateMutability": "view",
      "type": "function"
    },
    {
      "inputs": [
        {
          "internalType": "uint256",
          "name": "_paperId",
          "type": "uint256"
        }
      ],
      "name": "studentRaiseDispute",
      "outputs": [],
      "stateMutability": "nonpayable",
      "type": "function"
    },
    {
      "inputs": [
        {
          "internalType": "uint256",
          "name": "_paperId",
          "type": "uint256"
        }
      ],
      "name": "acceptValidation",
      "outputs": [],
      "stateMutability": "nonpayable",
      "type": "function"
    }
  ],
  "bytecode": "0x60806040526000600155600060025534801561001a57600080fd5b50600061002b6100ce60201b60201c565b9050806000806101000a81548173ffffffffffffffffffffffffffffffffffffffff021916908373ffffffffffffffffffffffffffffffffffffffff1602179055508073ffffffffffffffffffffffffffffffffffffffff16600073ffffffffffffffffffffffffffffffffffffffff167f8be0079c531659141344cd1fd0a4f28419497f9722a3daafe3b4186f6b6457e060405160405180910390a3506100d6565b600033905090565b61306f80620000e66000396000f3fe608060405234801561001057600080fd5b506004361061010b5760003560e01c80639b105be7116100a2578063d6334dca11610071578063d6334dca1461028a578063d9686ffc146102a6578063f2fde38b146102c2578063f7277f60146102de578063fba2a2931461030e5761010b565b80639b105be714610204578063a092458d14610234578063a56c2cb914610250578063c9ced54a1461026e5761010b565b8063781bc713116100de578063781bc713146101a25780637b7e866d146101ac57806389cc2d8d146101c85780638da5cb5b146101e65761010b565b80632720a5221461011057806346d671821461012c5780635e775a271461015e578063715018a614610198575b600080fd5b61012a600480360381019061012591906129cf565b61032a565b005b61014660048036038101906101419190612a23565b610907565b60405161015593929190612e2e565b60405180910390f35b61017860048036038101906101739190612a23565b610d03565b60405161018f9b9a99989796959493929190612d7a565b60405180910390f35b6101a0610f86565b005b6101aa6110db565b005b6101c660048036038101906101c191906129a6565b6112f4565b005b6101d06113fe565b6040516101dd9190612cf8565b60405180910390f35b6101ee611404565b6040516101fb9190612c7b565b60405180910390f35b61021e60048036038101906102199190612a23565b61142d565b60405161022b9190612c96565b60405180910390f35b61024e60048036038101906102499190612a4c565b61180e565b005b610258611a53565b6040516102659190612cf8565b60405180910390f35b61028860048036038101906102839190612a23565b611a59565b005b6102a4600480360381019061029f919061297d565b611ce2565b005b6102c060048036038101906102bb9190612a4c565b611d86565b005b6102dc60048036038101906102d7919061297d565b611e44565b005b6102f860048036038101906102f39190612a23565b612008565b6040516103059190612cf8565b60405180910390f35b61032860048036038101906103239190612a23565b612471565b005b61033560033361260f565b61033e57600080fd5b610346612755565b6040518060600160405280600073ffffffffffffffffffffffffffffffffffffffff16815260200160001515815260200160008152509050610386612755565b6040518060600160405280600073ffffffffffffffffffffffffffffffffffffffff168152602001600015158152602001600081525090506103c661278e565b60405180610160016040528060015481526020018581526020013373ffffffffffffffffffffffffffffffffffffffff1681526020018673ffffffffffffffffffffffffffffffffffffffff168152602001848152602001838152602001600073ffffffffffffffffffffffffffffffffffffffff168152602001600081526020016000151581526020016000151581526020016000600381111561046757fe5b815250905060006002544233604051602001610484929190612c4f565b6040516020818303038152906040528051906020012060001c816104a457fe5b0690506006600082815260200190815260200160002060009054906101000a900473ffffffffffffffffffffffffffffffffffffffff1660056000600154815260200190815260200160002060040160000160006101000a81548173ffffffffffffffffffffffffffffffffffffffff021916908373ffffffffffffffffffffffffffffffffffffffff1602179055506006600060018301815260200190815260200160002060009054906101000a900473ffffffffffffffffffffffffffffffffffffffff1660056000600154815260200190815260200160002060060160000160006101000a81548173ffffffffffffffffffffffffffffffffffffffff021916908373ffffffffffffffffffffffffffffffffffffffff16021790555081600560006001548152602001908152602001600020600082015181600001556020820151816001019080519060200190610600929190612845565b5060408201518160020160006101000a81548173ffffffffffffffffffffffffffffffffffffffff021916908373ffffffffffffffffffffffffffffffffffffffff16021790555060608201518160030160006101000a81548173ffffffffffffffffffffffffffffffffffffffff021916908373ffffffffffffffffffffffffffffffffffffffff16021790555060808201518160040160008201518160000160006101000a81548173ffffffffffffffffffffffffffffffffffffffff021916908373ffffffffffffffffffffffffffffffffffffffff16021790555060208201518160000160146101000a81548160ff02191690831515021790555060408201518160010155505060a08201518160060160008201518160000160006101000a81548173ffffffffffffffffffffffffffffffffffffffff021916908373ffffffffffffffffffffffffffffffffffffffff16021790555060208201518160000160146101000a81548160ff02191690831515021790555060408201518160010155505060c08201518160080160006101000a81548173ffffffffffffffffffffffffffffffffffffffff021916908373ffffffffffffffffffffffffffffffffffffffff16021790555060e0820151816009015561010082015181600a0160006101000a81548160ff02191690831515021790555061012082015181600a0160016101000a81548160ff02191690831515021790555061014082015181600a0160026101000a81548160ff0219169083600381111561083f57fe5b02179055509050506001600081548092919060010191905055507f91bde9cd7b5faae703f29b278c51a52419e196c0c1ddbff9d846e316e7d08bbb6001546006600084815260200190815260200160002060009054906101000a900473ffffffffffffffffffffffffffffffffffffffff166006600060018601815260200190815260200160002060009054906101000a900473ffffffffffffffffffffffffffffffffffffffff166040516108f793929190612d13565b60405180910390a1505050505050565b6000806000833373ffffffffffffffffffffffffffffffffffffffff166005600083815260200190815260200160002060030160009054906101000a900473ffffffffffffffffffffffffffffffffffffffff1673ffffffffffffffffffffffffffffffffffffffff161461097b57600080fd5b61098361278e565b600560008781526020019081526020016000206040518061016001604052908160008201548152602001600182018054600181600116156101000203166002900480601f016020809104026020016040519081016040528092919081815260200182805460018160011615610100020316600290048015610a455780601f10610a1a57610100808354040283529160200191610a45565b820191906000526020600020905b815481529060010190602001808311610a2857829003601f168201915b505050505081526020016002820160009054906101000a900473ffffffffffffffffffffffffffffffffffffffff1673ffffffffffffffffffffffffffffffffffffffff1673ffffffffffffffffffffffffffffffffffffffff1681526020016003820160009054906101000a900473ffffffffffffffffffffffffffffffffffffffff1673ffffffffffffffffffffffffffffffffffffffff1673ffffffffffffffffffffffffffffffffffffffff168152602001600482016040518060600160405290816000820160009054906101000a900473ffffffffffffffffffffffffffffffffffffffff1673ffffffffffffffffffffffffffffffffffffffff1673ffffffffffffffffffffffffffffffffffffffff1681526020016000820160149054906101000a900460ff161515151581526020016001820154815250508152602001600682016040518060600160405290816000820160009054906101000a900473ffffffffffffffffffffffffffffffffffffffff1673ffffffffffffffffffffffffffffffffffffffff1673ffffffffffffffffffffffffffffffffffffffff1681526020016000820160149054906101000a900460ff1615151515815260200160018201548152505081526020016008820160009054906101000a900473ffffffffffffffffffffffffffffffffffffffff1673ffffffffffffffffffffffffffffffffffffffff1673ffffffffffffffffffffffffffffffffffffffff16815260200160098201548152602001600a820160009054906101000a900460ff16151515158152602001600a820160019054906101000a900460ff16151515158152602001600a820160029054906101000a900460ff166003811115610ccc57fe5b6003811115610cd757fe5b8152505090508060800151604001518160a00151604001518260e0015194509450945050509193909250565b6005602052806000526040600020600091509050806000015490806001018054600181600116156101000203166002900480601f016020809104026020016040519081016040528092919081815260200182805460018160011615610100020316600290048015610db55780601f10610d8a57610100808354040283529160200191610db5565b820191906000526020600020905b815481529060010190602001808311610d9857829003601f168201915b5050505050908060020160009054906101000a900473ffffffffffffffffffffffffffffffffffffffff16908060030160009054906101000a900473ffffffffffffffffffffffffffffffffffffffff1690806004016040518060600160405290816000820160009054906101000a900473ffffffffffffffffffffffffffffffffffffffff1673ffffffffffffffffffffffffffffffffffffffff1673ffffffffffffffffffffffffffffffffffffffff1681526020016000820160149054906101000a900460ff1615151515815260200160018201548152505090806006016040518060600160405290816000820160009054906101000a900473ffffffffffffffffffffffffffffffffffffffff1673ffffffffffffffffffffffffffffffffffffffff1673ffffffffffffffffffffffffffffffffffffffff1681526020016000820160149054906101000a900460ff16151515158152602001600182015481525050908060080160009054906101000a900473ffffffffffffffffffffffffffffffffffffffff169080600901549080600a0160009054906101000a900460ff169080600a0160019054906101000a900460ff169080600a0160029054906101000a900460ff1690508b565b610f8e6126a1565b73ffffffffffffffffffffffffffffffffffffffff166000809054906101000a900473ffffffffffffffffffffffffffffffffffffffff1673ffffffffffffffffffffffffffffffffffffffff161461101c576040517f08c379a000000000000000000000000000000000000000000000000000000000815260040161101390612cd8565b60405180910390fd5b600073ffffffffffffffffffffffffffffffffffffffff166000809054906101000a900473ffffffffffffffffffffffffffffffffffffffff1673ffffffffffffffffffffffffffffffffffffffff167f8be0079c531659141344cd1fd0a4f28419497f9722a3daafe3b4186f6b6457e060405160405180910390a360008060006101000a81548173ffffffffffffffffffffffffffffffffffffffff021916908373ffffffffffffffffffffffffffffffffffffffff160217905550565b6110e660043361260f565b6110ef57600080fd5b60008090505b60015481116112f1573373ffffffffffffffffffffffffffffffffffffffff166005600083815260200190815260200160002060040160000160009054906101000a900473ffffffffffffffffffffffffffffffffffffffff1673ffffffffffffffffffffffffffffffffffffffff1614806111d557503373ffffffffffffffffffffffffffffffffffffffff166005600083815260200190815260200160002060040160000160009054906101000a900473ffffffffffffffffffffffffffffffffffffffff1673ffffffffffffffffffffffffffffffffffffffff16145b156112e4576000600560008381526020019081526020016000206000015490506060600560008481526020019081526020016000206001018054600181600116156101000203166002900480601f0160208091040260200160405190810160405280929190818152602001828054600181600116156101000203166002900480156112a15780601f10611276576101008083540402835291602001916112a1565b820191906000526020600020905b81548152906001019060200180831161128457829003601f168201915b505050505090507ff68656739512624f1545744bcebbb05bb44a9ff8160b4d8f3f515cf6dfaf7ee382826040516112d9929190612d4a565b60405180910390a150505b80806001019150506110f5565b50565b6112fc6126a1565b73ffffffffffffffffffffffffffffffffffffffff166000809054906101000a900473ffffffffffffffffffffffffffffffffffffffff1673ffffffffffffffffffffffffffffffffffffffff161461138a576040517f08c379a000000000000000000000000000000000000000000000000000000000815260040161138190612cd8565b60405180910390fd5b6113956004826126a9565b8060066000600254815260200190815260200160002060006101000a81548173ffffffffffffffffffffffffffffffffffffffff021916908373ffffffffffffffffffffffffffffffffffffffff16021790555060026000815480929190600101919050555050565b60025481565b60008060009054906101000a900473ffffffffffffffffffffffffffffffffffffffff16905090565b6060813373ffffffffffffffffffffffffffffffffffffffff166005600083815260200190815260200160002060030160009054906101000a900473ffffffffffffffffffffffffffffffffffffffff1673ffffffffffffffffffffffffffffffffffffffff161461149e57600080fd5b6114a661278e565b600560008581526020019081526020016000206040518061016001604052908160008201548152602001600182018054600181600116156101000203166002900480601f0160208091040260200160405190810160405280929190818152602001828054600181600116156101000203166002900480156115685780601f1061153d57610100808354040283529160200191611568565b820191906000526020600020905b81548152906001019060200180831161154b57829003601f168201915b505050505081526020016002820160009054906101000a900473ffffffffffffffffffffffffffffffffffffffff1673ffffffffffffffffffffffffffffffffffffffff1673ffffffffffffffffffffffffffffffffffffffff1681526020016003820160009054906101000a900473ffffffffffffffffffffffffffffffffffffffff1673ffffffffffffffffffffffffffffffffffffffff1673ffffffffffffffffffffffffffffffffffffffff168152602001600482016040518060600160405290816000820160009054906101000a900473ffffffffffffffffffffffffffffffffffffffff1673ffffffffffffffffffffffffffffffffffffffff1673ffffffffffffffffffffffffffffffffffffffff1681526020016000820160149054906101000a900460ff161515151581526020016001820154815250508152602001600682016040518060600160405290816000820160009054906101000a900473ffffffffffffffffffffffffffffffffffffffff1673ffffffffffffffffffffffffffffffffffffffff1673ffffffffffffffffffffffffffffffffffffffff1681526020016000820160149054906101000a900460ff1615151515815260200160018201548152505081526020016008820160009054906101000a900473ffffffffffffffffffffffffffffffffffffffff1673ffffffffffffffffffffffffffffffffffffffff1673ffffffffffffffffffffffffffffffffffffffff16815260200160098201548152602001600a820160009054906101000a900460ff16151515158152602001600a820160019054906101000a900460ff16151515158152602001600a820160029054906101000a900460ff1660038111156117ef57fe5b60038111156117fa57fe5b815250509050806020015192505050919050565b8161181a60043361260f565b61182357600080fd5b3373ffffffffffffffffffffffffffffffffffffffff166005600083815260200190815260200160002060040160000160009054906101000a900473ffffffffffffffffffffffffffffffffffffffff1673ffffffffffffffffffffffffffffffffffffffff1614806118fa57503373ffffffffffffffffffffffffffffffffffffffff166005600083815260200190815260200160002060060160000160009054906101000a900473ffffffffffffffffffffffffffffffffffffffff1673ffffffffffffffffffffffffffffffffffffffff16145b61190357600080fd5b3373ffffffffffffffffffffffffffffffffffffffff166005600085815260200190815260200160002060040160000160009054906101000a900473ffffffffffffffffffffffffffffffffffffffff1673ffffffffffffffffffffffffffffffffffffffff1614156119c55781600560008581526020019081526020016000206004016001018190555060016005600085815260200190815260200160002060040160000160146101000a81548160ff021916908315150217905550611a16565b81600560008581526020019081526020016000206006016001018190555060016005600085815260200190815260200160002060060160000160146101000a81548160ff0219169083151502179055505b600160056000858152602001908152602001600020600a0160026101000a81548160ff02191690836003811115611a4957fe5b0217905550505050565b60015481565b803373ffffffffffffffffffffffffffffffffffffffff166005600083815260200190815260200160002060030160009054906101000a900473ffffffffffffffffffffffffffffffffffffffff1673ffffffffffffffffffffffffffffffffffffffff1614611ac857600080fd5b600160056000848152602001908152602001600020600a0160016101000a81548160ff02191690831515021790555060056000838152602001908152602001600020600a0160009054906101000a900460ff1615611ba3576005600083815260200190815260200160002060080160009054906101000a900473ffffffffffffffffffffffffffffffffffffffff1673ffffffffffffffffffffffffffffffffffffffff166108fc60049081150290604051600060405180830381858888f19350505050158015611b9d573d6000803e3d6000fd5b50611ca6565b6005600083815260200190815260200160002060040160000160009054906101000a900473ffffffffffffffffffffffffffffffffffffffff1673ffffffffffffffffffffffffffffffffffffffff166108fc60029081150290604051600060405180830381858888f19350505050158015611c23573d6000803e3d6000fd5b506005600083815260200190815260200160002060060160000160009054906101000a900473ffffffffffffffffffffffffffffffffffffffff1673ffffffffffffffffffffffffffffffffffffffff166108fc60029081150290604051600060405180830381858888f19350505050158015611ca4573d6000803e3d6000fd5b505b600260056000848152602001908152602001600020600a0160026101000a81548160ff02191690836003811115611cd957fe5b02179055505050565b611cea6126a1565b73ffffffffffffffffffffffffffffffffffffffff166000809054906101000a900473ffffffffffffffffffffffffffffffffffffffff1673ffffffffffffffffffffffffffffffffffffffff1614611d78576040517f08c379a0000000000000000000000000000000000000000000000000000000008152600401611d6f90612cd8565b60405180910390fd5b611d836003826126a9565b50565b813373ffffffffffffffffffffffffffffffffffffffff166005600083815260200190815260200160002060080160009054906101000a900473ffffffffffffffffffffffffffffffffffffffff1673ffffffffffffffffffffffffffffffffffffffff1614611df557600080fd5b816005600085815260200190815260200160002060090181905550600060056000858152602001908152602001600020600a0160006101000a81548160ff021916908315150217905550505050565b611e4c6126a1565b73ffffffffffffffffffffffffffffffffffffffff166000809054906101000a900473ffffffffffffffffffffffffffffffffffffffff1673ffffffffffffffffffffffffffffffffffffffff1614611eda576040517f08c379a0000000000000000000000000000000000000000000000000000000008152600401611ed190612cd8565b60405180910390fd5b600073ffffffffffffffffffffffffffffffffffffffff168173ffffffffffffffffffffffffffffffffffffffff161415611f4a576040517f08c379a0000000000000000000000000000000000000000000000000000000008152600401611f4190612cb8565b60405180910390fd5b8073ffffffffffffffffffffffffffffffffffffffff166000809054906101000a900473ffffffffffffffffffffffffffffffffffffffff1673ffffffffffffffffffffffffffffffffffffffff167f8be0079c531659141344cd1fd0a4f28419497f9722a3daafe3b4186f6b6457e060405160405180910390a3806000806101000a81548173ffffffffffffffffffffffffffffffffffffffff021916908373ffffffffffffffffffffffffffffffffffffffff16021790555050565b6000813373ffffffffffffffffffffffffffffffffffffffff166005600083815260200190815260200160002060030160009054906101000a900473ffffffffffffffffffffffffffffffffffffffff1673ffffffffffffffffffffffffffffffffffffffff161461207957600080fd5b61208161278e565b600560008581526020019081526020016000206040518061016001604052908160008201548152602001600182018054600181600116156101000203166002900480601f0160208091040260200160405190810160405280929190818152602001828054600181600116156101000203166002900480156121435780601f1061211857610100808354040283529160200191612143565b820191906000526020600020905b81548152906001019060200180831161212657829003601f168201915b505050505081526020016002820160009054906101000a900473ffffffffffffffffffffffffffffffffffffffff1673ffffffffffffffffffffffffffffffffffffffff1673ffffffffffffffffffffffffffffffffffffffff1681526020016003820160009054906101000a900473ffffffffffffffffffffffffffffffffffffffff1673ffffffffffffffffffffffffffffffffffffffff1673ffffffffffffffffffffffffffffffffffffffff168152602001600482016040518060600160405290816000820160009054906101000a900473ffffffffffffffffffffffffffffffffffffffff1673ffffffffffffffffffffffffffffffffffffffff1673ffffffffffffffffffffffffffffffffffffffff1681526020016000820160149054906101000a900460ff161515151581526020016001820154815250508152602001600682016040518060600160405290816000820160009054906101000a900473ffffffffffffffffffffffffffffffffffffffff1673ffffffffffffffffffffffffffffffffffffffff1673ffffffffffffffffffffffffffffffffffffffff1681526020016000820160149054906101000a900460ff1615151515815260200160018201548152505081526020016008820160009054906101000a900473ffffffffffffffffffffffffffffffffffffffff1673ffffffffffffffffffffffffffffffffffffffff1673ffffffffffffffffffffffffffffffffffffffff16815260200160098201548152602001600a820160009054906101000a900460ff16151515158152602001600a820160019054906101000a900460ff16151515158152602001600a820160029054906101000a900460ff1660038111156123ca57fe5b60038111156123d557fe5b815250509050600060038111156123e857fe5b81610140015160038111156123f957fe5b141561240957600092505061246b565b6001600381111561241657fe5b816101400151600381111561242757fe5b141561243757600192505061246b565b6002600381111561244457fe5b816101400151600381111561245557fe5b141561246557600292505061246b565b60039250505b50919050565b803373ffffffffffffffffffffffffffffffffffffffff166005600083815260200190815260200160002060030160009054906101000a900473ffffffffffffffffffffffffffffffffffffffff1673ffffffffffffffffffffffffffffffffffffffff16146124e057600080fd5b600060025442336040516020016124f8929190612c4f565b6040516020818303038152906040528051906020012060001c8161251857fe5b0690506006600082815260200190815260200160002060009054906101000a900473ffffffffffffffffffffffffffffffffffffffff166005600085815260200190815260200160002060080160006101000a81548173ffffffffffffffffffffffffffffffffffffffff021916908373ffffffffffffffffffffffffffffffffffffffff160217905550600160056000858152602001908152602001600020600a0160006101000a81548160ff021916908315150217905550600360056000858152602001908152602001600020600a0160026101000a81548160ff0219169083600381111561260557fe5b0217905550505050565b60008073ffffffffffffffffffffffffffffffffffffffff168273ffffffffffffffffffffffffffffffffffffffff16141561264a57600080fd5b8260000160008373ffffffffffffffffffffffffffffffffffffffff1673ffffffffffffffffffffffffffffffffffffffff16815260200190815260200160002060009054906101000a900460ff16905092915050565b600033905090565b600073ffffffffffffffffffffffffffffffffffffffff168173ffffffffffffffffffffffffffffffffffffffff1614156126e357600080fd5b6126ed828261260f565b156126f757600080fd5b60018260000160008373ffffffffffffffffffffffffffffffffffffffff1673ffffffffffffffffffffffffffffffffffffffff16815260200190815260200160002060006101000a81548160ff0219169083151502179055505050565b6040518060600160405280600073ffffffffffffffffffffffffffffffffffffffff168152602001600015158152602001600081525090565b6040518061016001604052806000815260200160608152602001600073ffffffffffffffffffffffffffffffffffffffff168152602001600073ffffffffffffffffffffffffffffffffffffffff1681526020016127ea612755565b81526020016127f7612755565b8152602001600073ffffffffffffffffffffffffffffffffffffffff168152602001600081526020016000151581526020016000151581526020016000600381111561283f57fe5b81525090565b828054600181600116156101000203166002900490600052602060002090601f016020900481019282601f1061288657805160ff19168380011785556128b4565b828001600101855582156128b4579182015b828111156128b3578251825591602001919060010190612898565b5b5090506128c191906128c5565b5090565b6128e791905b808211156128e35760008160009055506001016128cb565b5090565b90565b6000813590506128f981612ff4565b92915050565b60008135905061290e8161300b565b92915050565b600082601f83011261292557600080fd5b813561293861293382612e92565b612e65565b9150808252602083016020830185838301111561295457600080fd5b61295f838284612f59565b50505092915050565b60008135905061297781613022565b92915050565b60006020828403121561298f57600080fd5b600061299d848285016128ea565b91505092915050565b6000602082840312156129b857600080fd5b60006129c6848285016128ff565b91505092915050565b600080604083850312156129e257600080fd5b60006129f0858286016128ff565b925050602083013567ffffffffffffffff811115612a0d57600080fd5b612a1985828601612914565b9150509250929050565b600060208284031215612a3557600080fd5b6000612a4384828501612968565b91505092915050565b60008060408385031215612a5f57600080fd5b6000612a6d85828601612968565b9250506020612a7e85828601612968565b9150509250929050565b612a9181612eec565b82525050565b612aa081612eec565b82525050565b612ab7612ab282612eec565b612f9b565b82525050565b612ac681612eda565b82525050565b612ad581612efe565b82525050565b612ae481612efe565b82525050565b612af381612f47565b82525050565b6000612b0482612ebe565b612b0e8185612ec9565b9350612b1e818560208601612f68565b612b2781612fc9565b840191505092915050565b6000612b3f602683612ec9565b91507f4f776e61626c653a206e6577206f776e657220697320746865207a65726f206160008301527f64647265737300000000000000000000000000000000000000000000000000006020830152604082019050919050565b6000612ba5602083612ec9565b91507f4f776e61626c653a2063616c6c6572206973206e6f7420746865206f776e65726000830152602082019050919050565b606082016000820151612bee6000850182612a88565b506020820151612c016020850182612acc565b506040820151612c146040850182612c1a565b50505050565b612c2381612f3d565b82525050565b612c3281612f3d565b82525050565b612c49612c4482612f3d565b612fbf565b82525050565b6000612c5b8285612c38565b602082019150612c6b8284612aa6565b6014820191508190509392505050565b6000602082019050612c906000830184612abd565b92915050565b60006020820190508181036000830152612cb08184612af9565b905092915050565b60006020820190508181036000830152612cd181612b32565b9050919050565b60006020820190508181036000830152612cf181612b98565b9050919050565b6000602082019050612d0d6000830184612c29565b92915050565b6000606082019050612d286000830186612c29565b612d356020830185612a97565b612d426040830184612a97565b949350505050565b6000604082019050612d5f6000830185612c29565b8181036020830152612d718184612af9565b90509392505050565b60006101e082019050612d90600083018e612c29565b8181036020830152612da2818d612af9565b9050612db1604083018c612abd565b612dbe606083018b612a97565b612dcb608083018a612bd8565b612dd860e0830189612bd8565b612de6610140830188612a97565b612df4610160830187612c29565b612e02610180830186612adb565b612e106101a0830185612adb565b612e1e6101c0830184612aea565b9c9b505050505050505050505050565b6000606082019050612e436000830186612c29565b612e506020830185612c29565b612e5d6040830184612c29565b949350505050565b6000604051905081810181811067ffffffffffffffff82111715612e8857600080fd5b8060405250919050565b600067ffffffffffffffff821115612ea957600080fd5b601f19601f8301169050602081019050919050565b600081519050919050565b600082825260208201905092915050565b6000612ee582612f1d565b9050919050565b6000612ef782612f1d565b9050919050565b60008115159050919050565b6000819050612f1882612fe7565b919050565b600073ffffffffffffffffffffffffffffffffffffffff82169050919050565b6000819050919050565b6000612f5282612f0a565b9050919050565b82818337600083830152505050565b60005b83811015612f86578082015181840152602081019050612f6b565b83811115612f95576000848401525b50505050565b6000612fa682612fad565b9050919050565b6000612fb882612fda565b9050919050565b6000819050919050565b6000601f19601f8301169050919050565b60008160601b9050919050565b60048110612ff157fe5b50565b612ffd81612eda565b811461300857600080fd5b50565b61301481612eec565b811461301f57600080fd5b50565b61302b81612f3d565b811461303657600080fd5b5056fea26469706673582212202a117ea3212cb57024b223d862dfff7fb5b9fc2977ab68da25075f805ca3121a64736f6c63430006060033",
  "source": "pragma solidity ^0.6.0;\npragma experimental ABIEncoderV2;\n\nimport \"@openzeppelin/contracts/access/Ownable.sol\";\nimport \"./Roles.sol\";\n\n\ncontract Paper is Ownable {\n    struct Valuator {\n        address payable valuator;\n        bool isValuated;\n        uint256 marks;\n    }\n    struct Item {\n        uint256 pid;\n        string ipfsHash;\n        address college;\n        address payable student;\n        Valuator val1;\n        Valuator val2;\n        address payable reviewer;\n        uint256 reviewermarks;\n        bool raiseDispute;\n        bool acceptedValidation;\n        State state;\n    }\n\n    enum State {SUBMITTED, VALUATED, ACCEPTED, REVIEWING}\n\n    uint256 public paperCount = 0;\n    uint256 public valuatorCount = 0;\n\n    Roles.Role private colleges;\n    Roles.Role private valuators;\n\n    mapping(uint256 => Item) public papers;\n\n    mapping(uint256 => address payable) private valuatorsAddresses;\n\n    modifier onlyCollege() {\n        require(Roles.has(colleges, msg.sender));\n        _;\n    }\n\n    modifier onlyValuator(uint256 _paperId) {\n        require(Roles.has(valuators, msg.sender));\n        require(\n            papers[_paperId].val1.valuator == msg.sender ||\n                papers[_paperId].val2.valuator == msg.sender\n        );\n        _;\n    }\n\n    modifier onlyStudent(uint256 _paperId) {\n        require(papers[_paperId].student == msg.sender);\n        _;\n    }\n\n    modifier onlyReviewer(uint256 _paperId) {\n        require(papers[_paperId].reviewer == msg.sender);\n        _;\n    }\n\n    event PaperforValuator(uint256 id, string ipfs);\n    event paperSubmitted(\n        uint256 _paperId,\n        address payable addr,\n        address payable addr2\n    );\n\n    constructor() public {}\n\n    // KTU\n\n    function addColleges(address _collegeAddress) public onlyOwner {\n        Roles.add(colleges, _collegeAddress);\n    }\n\n    function addValuators(address payable _valuatorAddress) public onlyOwner {\n        Roles.add(valuators, _valuatorAddress);\n        valuatorsAddresses[valuatorCount] = _valuatorAddress;\n        valuatorCount++;\n    }\n\n    // KTU END\n\n    // College\n    function addPaper(address payable _studentAddress, string memory _ipfsHash)\n        public\n        onlyCollege\n    {\n        Valuator memory val1 = Valuator(address(0), false, 0);\n        Valuator memory val2 = Valuator(address(0), false, 0);\n\n        Item memory paper = Item(\n            paperCount,\n            _ipfsHash,\n            msg.sender,\n            _studentAddress,\n            val1,\n            val2,\n            address(0),\n            0,\n            false,\n            false,\n            State.SUBMITTED\n        );\n\n        // Randomly select valuators\n        uint256 randomnumber = uint256(\n            keccak256(abi.encodePacked(now, msg.sender))\n        ) % valuatorCount;\n\n        papers[paperCount].val1.valuator = valuatorsAddresses[randomnumber];\n        papers[paperCount].val2.valuator = valuatorsAddresses[randomnumber + 1];\n\n        papers[paperCount] = paper;\n        paperCount++;\n        emit paperSubmitted(\n            paperCount,\n            valuatorsAddresses[randomnumber],\n            valuatorsAddresses[randomnumber + 1]\n        );\n    }\n\n    // College END\n\n    // valuator\n\n    function addMarks(uint256 _paperId, uint256 marks)\n        public\n        onlyValuator(_paperId)\n    {\n        if (papers[_paperId].val1.valuator == msg.sender) {\n            papers[_paperId].val1.marks = marks;\n            papers[_paperId].val1.isValuated = true;\n        } else {\n            papers[_paperId].val2.marks = marks;\n            papers[_paperId].val2.isValuated = true;\n        }\n        papers[_paperId].state = State.VALUATED;\n    }\n\n    function getAssignedPapers() public {\n        require(Roles.has(valuators, msg.sender));\n\n        for (uint256 i = 0; i <= paperCount; i++) {\n            if (\n                papers[i].val1.valuator == msg.sender ||\n                papers[i].val1.valuator == msg.sender\n            ) {\n                uint256 paper_id = papers[i].pid;\n                string memory ipfsHash = papers[i].ipfsHash;\n                emit PaperforValuator(paper_id, ipfsHash);\n            }\n        }\n    }\n\n    function reviewerSubmit(uint256 _paperId, uint256 _marks)\n        public\n        onlyReviewer(_paperId)\n    {\n        papers[_paperId].reviewermarks = _marks;\n        papers[_paperId].raiseDispute = false;\n    }\n\n    //   valuator end\n\n    // For student\n\n    function getResultForStudent(uint256 _paperId)\n        public\n        view\n        onlyStudent(_paperId)\n        returns (uint256, uint256, uint256)\n    {\n        Item memory paper = papers[_paperId];\n        return (paper.val1.marks, paper.val2.marks, paper.reviewermarks);\n    }\n\n    function getStateForStudent(uint256 _id)\n        public\n        view\n        onlyStudent(_id)\n        returns (uint256)\n    {\n        Item memory paper = papers[_id];\n        if (paper.state == State.SUBMITTED) {\n            return 0;\n        } else if (paper.state == State.VALUATED) {\n            return 1;\n        } else if (paper.state == State.ACCEPTED) {\n            return 2;\n        } else {\n            return 3;\n        }\n    }\n\n    function getPaperForStudent(uint256 _paperId)\n        public\n        view\n        onlyStudent(_paperId)\n        returns (string memory)\n    {\n        Item memory paper = papers[_paperId];\n        return (paper.ipfsHash);\n    }\n\n    function studentRaiseDispute(uint256 _paperId)\n        public\n        onlyStudent(_paperId)\n    {\n        uint256 randomnumber = uint256(\n            keccak256(abi.encodePacked(now, msg.sender))\n        ) % valuatorCount;\n        papers[_paperId].reviewer = valuatorsAddresses[randomnumber];\n        papers[_paperId].raiseDispute = true;\n        papers[_paperId].state = State.REVIEWING;\n    }\n\n    function acceptValidation(uint256 _paperId) public onlyStudent(_paperId) {\n        papers[_paperId].acceptedValidation = true;\n        if (papers[_paperId].raiseDispute) {\n            papers[_paperId].reviewer.transfer(4);\n        } else {\n            papers[_paperId].val1.valuator.transfer(2);\n            papers[_paperId].val2.valuator.transfer(2);\n        }\n        papers[_paperId].state = State.ACCEPTED;\n    }\n\n    //   Student END.\n}\n",
  "sourcePath": "/home/asish/Desktop/sideProjects/socialmedia/contracts/Paper.sol",
  "compiler": {
    "name": "solc",
    "version": "0.6.6+commit.6c089d02.Emscripten.clang"
  },
  "schemaVersion": "3.0.23",
  "updatedAt": "2020-04-27T08:19:23.047Z",
  "devdoc": {
    "methods": {
      "owner()": {
        "details": "Returns the address of the current owner."
      },
      "renounceOwnership()": {
        "details": "Leaves the contract without owner. It will not be possible to call `onlyOwner` functions anymore. Can only be called by the current owner.     * NOTE: Renouncing ownership will leave the contract without an owner, thereby removing any functionality that is only available to the owner."
      },
      "transferOwnership(address)": {
        "details": "Transfers ownership of the contract to a new account (`newOwner`). Can only be called by the current owner."
      }
    }
  },
  "userdoc": {
    "methods": {}
  }
}