{
  "contractName": "Paper",
  "abi": [
    {
      "inputs": [],
      "stateMutability": "nonpayable",
      "type": "constructor"
    },
    {
      "anonymous": false,
      "inputs": [
        {
          "indexed": true,
          "internalType": "address",
          "name": "previousOwner",
          "type": "address"
        },
        {
          "indexed": true,
          "internalType": "address",
          "name": "newOwner",
          "type": "address"
        }
      ],
      "name": "OwnershipTransferred",
      "type": "event"
    },
    {
      "anonymous": false,
      "inputs": [
        {
          "indexed": false,
          "internalType": "uint256",
          "name": "_paperId",
          "type": "uint256"
        }
      ],
      "name": "paperSubmitted",
      "type": "event"
    },
    {
      "inputs": [],
      "name": "owner",
      "outputs": [
        {
          "internalType": "address",
          "name": "",
          "type": "address"
        }
      ],
      "stateMutability": "view",
      "type": "function",
      "constant": true
    },
    {
      "inputs": [],
      "name": "paperCount",
      "outputs": [
        {
          "internalType": "uint256",
          "name": "",
          "type": "uint256"
        }
      ],
      "stateMutability": "view",
      "type": "function",
      "constant": true
    },
    {
      "inputs": [
        {
          "internalType": "uint256",
          "name": "",
          "type": "uint256"
        }
      ],
      "name": "papers",
      "outputs": [
        {
          "internalType": "uint256",
          "name": "pid",
          "type": "uint256"
        },
        {
          "internalType": "string",
          "name": "ipfsHash",
          "type": "string"
        },
        {
          "internalType": "address",
          "name": "college",
          "type": "address"
        },
        {
          "internalType": "address payable",
          "name": "student",
          "type": "address"
        },
        {
          "internalType": "address payable",
          "name": "valuator1",
          "type": "address"
        },
        {
          "internalType": "address payable",
          "name": "valuator2",
          "type": "address"
        },
        {
          "internalType": "address payable",
          "name": "reviewer",
          "type": "address"
        },
        {
          "internalType": "bool",
          "name": "isValuated1",
          "type": "bool"
        },
        {
          "internalType": "bool",
          "name": "isValuated2",
          "type": "bool"
        },
        {
          "internalType": "uint256",
          "name": "marks1",
          "type": "uint256"
        },
        {
          "internalType": "uint256",
          "name": "marks2",
          "type": "uint256"
        },
        {
          "internalType": "uint256",
          "name": "marks3",
          "type": "uint256"
        },
        {
          "internalType": "bool",
          "name": "raiseDispute",
          "type": "bool"
        },
        {
          "internalType": "bool",
          "name": "acceptedValidation",
          "type": "bool"
        }
      ],
      "stateMutability": "view",
      "type": "function",
      "constant": true
    },
    {
      "inputs": [],
      "name": "renounceOwnership",
      "outputs": [],
      "stateMutability": "nonpayable",
      "type": "function"
    },
    {
      "inputs": [
        {
          "internalType": "address",
          "name": "newOwner",
          "type": "address"
        }
      ],
      "name": "transferOwnership",
      "outputs": [],
      "stateMutability": "nonpayable",
      "type": "function"
    },
    {
      "inputs": [],
      "name": "valuatorCount",
      "outputs": [
        {
          "internalType": "uint256",
          "name": "",
          "type": "uint256"
        }
      ],
      "stateMutability": "view",
      "type": "function",
      "constant": true
    },
    {
      "inputs": [
        {
          "internalType": "uint256",
          "name": "",
          "type": "uint256"
        }
      ],
      "name": "valuatorsAddresses",
      "outputs": [
        {
          "internalType": "address payable",
          "name": "",
          "type": "address"
        }
      ],
      "stateMutability": "view",
      "type": "function",
      "constant": true
    },
    {
      "inputs": [
        {
          "internalType": "address",
          "name": "_collegeAddress",
          "type": "address"
        }
      ],
      "name": "addColleges",
      "outputs": [],
      "stateMutability": "nonpayable",
      "type": "function"
    },
    {
      "inputs": [
        {
          "internalType": "address payable",
          "name": "_valuatorAddress",
          "type": "address"
        }
      ],
      "name": "addValuators",
      "outputs": [],
      "stateMutability": "nonpayable",
      "type": "function"
    },
    {
      "inputs": [
        {
          "internalType": "address payable",
          "name": "_studentAddress",
          "type": "address"
        },
        {
          "internalType": "string",
          "name": "_ipfsHash",
          "type": "string"
        }
      ],
      "name": "addPaper",
      "outputs": [],
      "stateMutability": "nonpayable",
      "type": "function"
    },
    {
      "inputs": [
        {
          "internalType": "uint256",
          "name": "_paperId",
          "type": "uint256"
        },
        {
          "internalType": "uint256",
          "name": "marks",
          "type": "uint256"
        }
      ],
      "name": "addMarks",
      "outputs": [],
      "stateMutability": "nonpayable",
      "type": "function"
    },
    {
      "inputs": [
        {
          "internalType": "uint256",
          "name": "_paperId",
          "type": "uint256"
        },
        {
          "internalType": "uint256",
          "name": "_marks",
          "type": "uint256"
        }
      ],
      "name": "reviewerSubmit",
      "outputs": [],
      "stateMutability": "nonpayable",
      "type": "function"
    },
    {
      "inputs": [
        {
          "internalType": "uint256",
          "name": "_paperId",
          "type": "uint256"
        }
      ],
      "name": "getResultForStudent",
      "outputs": [
        {
          "internalType": "uint256",
          "name": "",
          "type": "uint256"
        },
        {
          "internalType": "uint256",
          "name": "",
          "type": "uint256"
        },
        {
          "internalType": "uint256",
          "name": "",
          "type": "uint256"
        },
        {
          "internalType": "address",
          "name": "",
          "type": "address"
        },
        {
          "internalType": "address",
          "name": "",
          "type": "address"
        },
        {
          "internalType": "address",
          "name": "",
          "type": "address"
        }
      ],
      "stateMutability": "view",
      "type": "function",
      "constant": true
    },
    {
      "inputs": [
        {
          "internalType": "uint256",
          "name": "_paperId",
          "type": "uint256"
        }
      ],
      "name": "studentRaiseDispute",
      "outputs": [],
      "stateMutability": "nonpayable",
      "type": "function"
    },
    {
      "inputs": [
        {
          "internalType": "uint256",
          "name": "_paperId",
          "type": "uint256"
        }
      ],
      "name": "acceptValidation",
      "outputs": [],
      "stateMutability": "nonpayable",
      "type": "function"
    }
  ],
  "bytecode": "0x60806040526000600155600060025534801561001a57600080fd5b50600061002b6100ce60201b60201c565b9050806000806101000a81548173ffffffffffffffffffffffffffffffffffffffff021916908373ffffffffffffffffffffffffffffffffffffffff1602179055508073ffffffffffffffffffffffffffffffffffffffff16600073ffffffffffffffffffffffffffffffffffffffff167f8be0079c531659141344cd1fd0a4f28419497f9722a3daafe3b4186f6b6457e060405160405180910390a3506100d6565b600033905090565b6120a8806100e56000396000f3fe608060405234801561001057600080fd5b50600436106100f55760003560e01c8063a092458d11610097578063d6334dca11610066578063d6334dca14610654578063d9686ffc14610698578063f2fde38b146106d0578063fba2a29314610714576100f5565b8063a092458d14610562578063a56c2cb91461059a578063c6430d14146105b8578063c9ced54a14610626576100f5565b8063715018a6116100d3578063715018a6146104ac5780637b7e866d146104b657806389cc2d8d146104fa5780638da5cb5b14610518576100f5565b80632720a522146100fa57806346d67182146101d55780635e775a27146102be575b600080fd5b6101d36004803603604081101561011057600080fd5b81019080803573ffffffffffffffffffffffffffffffffffffffff1690602001909291908035906020019064010000000081111561014d57600080fd5b82018360208201111561015f57600080fd5b8035906020019184600183028401116401000000008311171561018157600080fd5b91908080601f016020809104026020016040519081016040528093929190818152602001838380828437600081840152601f19601f820116905080830192505050505050509192919290505050610742565b005b610201600480360360208110156101eb57600080fd5b8101908080359060200190929190505050610c21565b604051808781526020018681526020018581526020018473ffffffffffffffffffffffffffffffffffffffff1673ffffffffffffffffffffffffffffffffffffffff1681526020018373ffffffffffffffffffffffffffffffffffffffff1673ffffffffffffffffffffffffffffffffffffffff1681526020018273ffffffffffffffffffffffffffffffffffffffff1673ffffffffffffffffffffffffffffffffffffffff168152602001965050505050505060405180910390f35b6102ea600480360360208110156102d457600080fd5b8101908080359060200190929190505050610fe7565b604051808f8152602001806020018e73ffffffffffffffffffffffffffffffffffffffff1673ffffffffffffffffffffffffffffffffffffffff1681526020018d73ffffffffffffffffffffffffffffffffffffffff1673ffffffffffffffffffffffffffffffffffffffff1681526020018c73ffffffffffffffffffffffffffffffffffffffff1673ffffffffffffffffffffffffffffffffffffffff1681526020018b73ffffffffffffffffffffffffffffffffffffffff1673ffffffffffffffffffffffffffffffffffffffff1681526020018a73ffffffffffffffffffffffffffffffffffffffff1673ffffffffffffffffffffffffffffffffffffffff1681526020018915151515815260200188151515158152602001878152602001868152602001858152602001841515151581526020018315151515815260200182810382528f818151815260200191508051906020019080838360005b83811015610464578082015181840152602081019050610449565b50505050905090810190601f1680156104915780820380516001836020036101000a031916815260200191505b509f5050505050505050505050505050505060405180910390f35b6104b46111bf565b005b6104f8600480360360208110156104cc57600080fd5b81019080803573ffffffffffffffffffffffffffffffffffffffff169060200190929190505050611347565b005b610502611484565b6040518082815260200191505060405180910390f35b61052061148a565b604051808273ffffffffffffffffffffffffffffffffffffffff1673ffffffffffffffffffffffffffffffffffffffff16815260200191505060405180910390f35b6105986004803603604081101561057857600080fd5b8101908080359060200190929190803590602001909291905050506114b3565b005b6105a26115bb565b6040518082815260200191505060405180910390f35b6105e4600480360360208110156105ce57600080fd5b81019080803590602001909291905050506115c1565b604051808273ffffffffffffffffffffffffffffffffffffffff1673ffffffffffffffffffffffffffffffffffffffff16815260200191505060405180910390f35b6106526004803603602081101561063c57600080fd5b81019080803590602001909291905050506115f4565b005b6106966004803603602081101561066a57600080fd5b81019080803573ffffffffffffffffffffffffffffffffffffffff16906020019092919050505061183f565b005b6106ce600480360360408110156106ae57600080fd5b810190808035906020019092919080359060200190929190505050611916565b005b610712600480360360208110156106e657600080fd5b81019080803573ffffffffffffffffffffffffffffffffffffffff1690602001909291905050506119d4565b005b6107406004803603602081101561072a57600080fd5b8101908080359060200190929190505050611be1565b005b61074d600333611d7c565b61075657600080fd5b61075e611ec2565b604051806101c0016040528060015481526020018381526020013373ffffffffffffffffffffffffffffffffffffffff1681526020018473ffffffffffffffffffffffffffffffffffffffff168152602001600073ffffffffffffffffffffffffffffffffffffffff168152602001600073ffffffffffffffffffffffffffffffffffffffff168152602001600073ffffffffffffffffffffffffffffffffffffffff16815260200160001515815260200160001515815260200160008152602001600081526020016000815260200160001515815260200160001515815250905060006002544233604051602001808381526020018273ffffffffffffffffffffffffffffffffffffffff1673ffffffffffffffffffffffffffffffffffffffff1660601b8152601401925050506040516020818303038152906040528051906020012060001c816108ad57fe5b0690506006600082815260200190815260200160002060009054906101000a900473ffffffffffffffffffffffffffffffffffffffff16826080019073ffffffffffffffffffffffffffffffffffffffff16908173ffffffffffffffffffffffffffffffffffffffff16815250506006600060018301815260200190815260200160002060009054906101000a900473ffffffffffffffffffffffffffffffffffffffff168260a0019073ffffffffffffffffffffffffffffffffffffffff16908173ffffffffffffffffffffffffffffffffffffffff1681525050816005600060015481526020019081526020016000206000820151816000015560208201518160010190805190602001906109c5929190611fa7565b5060408201518160020160006101000a81548173ffffffffffffffffffffffffffffffffffffffff021916908373ffffffffffffffffffffffffffffffffffffffff16021790555060608201518160030160006101000a81548173ffffffffffffffffffffffffffffffffffffffff021916908373ffffffffffffffffffffffffffffffffffffffff16021790555060808201518160040160006101000a81548173ffffffffffffffffffffffffffffffffffffffff021916908373ffffffffffffffffffffffffffffffffffffffff16021790555060a08201518160050160006101000a81548173ffffffffffffffffffffffffffffffffffffffff021916908373ffffffffffffffffffffffffffffffffffffffff16021790555060c08201518160060160006101000a81548173ffffffffffffffffffffffffffffffffffffffff021916908373ffffffffffffffffffffffffffffffffffffffff16021790555060e08201518160060160146101000a81548160ff0219169083151502179055506101008201518160060160156101000a81548160ff02191690831515021790555061012082015181600701556101408201518160080155610160820151816009015561018082015181600a0160006101000a81548160ff0219169083151502179055506101a082015181600a0160016101000a81548160ff0219169083151502179055509050506001600081548092919060010191905055507fe5f7a4c8301d66c316b4c35717ecf08d8dba8bf177233126ff08f6b523c1c4236001546040518082815260200191505060405180910390a150505050565b600080600080600080863373ffffffffffffffffffffffffffffffffffffffff166005600083815260200190815260200160002060030160009054906101000a900473ffffffffffffffffffffffffffffffffffffffff1673ffffffffffffffffffffffffffffffffffffffff1614610c9957600080fd5b610ca1611ec2565b600560008a8152602001908152602001600020604051806101c001604052908160008201548152602001600182018054600181600116156101000203166002900480601f016020809104026020016040519081016040528092919081815260200182805460018160011615610100020316600290048015610d635780601f10610d3857610100808354040283529160200191610d63565b820191906000526020600020905b815481529060010190602001808311610d4657829003601f168201915b505050505081526020016002820160009054906101000a900473ffffffffffffffffffffffffffffffffffffffff1673ffffffffffffffffffffffffffffffffffffffff1673ffffffffffffffffffffffffffffffffffffffff1681526020016003820160009054906101000a900473ffffffffffffffffffffffffffffffffffffffff1673ffffffffffffffffffffffffffffffffffffffff1673ffffffffffffffffffffffffffffffffffffffff1681526020016004820160009054906101000a900473ffffffffffffffffffffffffffffffffffffffff1673ffffffffffffffffffffffffffffffffffffffff1673ffffffffffffffffffffffffffffffffffffffff1681526020016005820160009054906101000a900473ffffffffffffffffffffffffffffffffffffffff1673ffffffffffffffffffffffffffffffffffffffff1673ffffffffffffffffffffffffffffffffffffffff1681526020016006820160009054906101000a900473ffffffffffffffffffffffffffffffffffffffff1673ffffffffffffffffffffffffffffffffffffffff1673ffffffffffffffffffffffffffffffffffffffff1681526020016006820160149054906101000a900460ff161515151581526020016006820160159054906101000a900460ff16151515158152602001600782015481526020016008820154815260200160098201548152602001600a820160009054906101000a900460ff16151515158152602001600a820160019054906101000a900460ff161515151581525050905080610120015181610140015182610160015183608001518460a001518560c00151829250819150809050975097509750975097509750505091939550919395565b6005602052806000526040600020600091509050806000015490806001018054600181600116156101000203166002900480601f0160208091040260200160405190810160405280929190818152602001828054600181600116156101000203166002900480156110995780601f1061106e57610100808354040283529160200191611099565b820191906000526020600020905b81548152906001019060200180831161107c57829003601f168201915b5050505050908060020160009054906101000a900473ffffffffffffffffffffffffffffffffffffffff16908060030160009054906101000a900473ffffffffffffffffffffffffffffffffffffffff16908060040160009054906101000a900473ffffffffffffffffffffffffffffffffffffffff16908060050160009054906101000a900473ffffffffffffffffffffffffffffffffffffffff16908060060160009054906101000a900473ffffffffffffffffffffffffffffffffffffffff16908060060160149054906101000a900460ff16908060060160159054906101000a900460ff169080600701549080600801549080600901549080600a0160009054906101000a900460ff169080600a0160019054906101000a900460ff1690508e565b6111c7611e0e565b73ffffffffffffffffffffffffffffffffffffffff166000809054906101000a900473ffffffffffffffffffffffffffffffffffffffff1673ffffffffffffffffffffffffffffffffffffffff1614611288576040517f08c379a00000000000000000000000000000000000000000000000000000000081526004018080602001828103825260208152602001807f4f776e61626c653a2063616c6c6572206973206e6f7420746865206f776e657281525060200191505060405180910390fd5b600073ffffffffffffffffffffffffffffffffffffffff166000809054906101000a900473ffffffffffffffffffffffffffffffffffffffff1673ffffffffffffffffffffffffffffffffffffffff167f8be0079c531659141344cd1fd0a4f28419497f9722a3daafe3b4186f6b6457e060405160405180910390a360008060006101000a81548173ffffffffffffffffffffffffffffffffffffffff021916908373ffffffffffffffffffffffffffffffffffffffff160217905550565b61134f611e0e565b73ffffffffffffffffffffffffffffffffffffffff166000809054906101000a900473ffffffffffffffffffffffffffffffffffffffff1673ffffffffffffffffffffffffffffffffffffffff1614611410576040517f08c379a00000000000000000000000000000000000000000000000000000000081526004018080602001828103825260208152602001807f4f776e61626c653a2063616c6c6572206973206e6f7420746865206f776e657281525060200191505060405180910390fd5b61141b600482611e16565b8060066000600254815260200190815260200160002060006101000a81548173ffffffffffffffffffffffffffffffffffffffff021916908373ffffffffffffffffffffffffffffffffffffffff16021790555060026000815480929190600101919050555050565b60025481565b60008060009054906101000a900473ffffffffffffffffffffffffffffffffffffffff16905090565b3373ffffffffffffffffffffffffffffffffffffffff166005600084815260200190815260200160002060040160009054906101000a900473ffffffffffffffffffffffffffffffffffffffff1673ffffffffffffffffffffffffffffffffffffffff16141561156c5780600560008481526020019081526020016000206007018190555060016005600084815260200190815260200160002060060160146101000a81548160ff0219169083151502179055506115b7565b80600560008481526020019081526020016000206008018190555060016005600084815260200190815260200160002060060160156101000a81548160ff0219169083151502179055505b5050565b60015481565b60066020528060005260406000206000915054906101000a900473ffffffffffffffffffffffffffffffffffffffff1681565b803373ffffffffffffffffffffffffffffffffffffffff166005600083815260200190815260200160002060030160009054906101000a900473ffffffffffffffffffffffffffffffffffffffff1673ffffffffffffffffffffffffffffffffffffffff161461166357600080fd5b600160056000848152602001908152602001600020600a0160016101000a81548160ff02191690831515021790555060056000838152602001908152602001600020600a0160009054906101000a900460ff161561173e576005600083815260200190815260200160002060060160009054906101000a900473ffffffffffffffffffffffffffffffffffffffff1673ffffffffffffffffffffffffffffffffffffffff166108fc60049081150290604051600060405180830381858888f19350505050158015611738573d6000803e3d6000fd5b5061183b565b6005600083815260200190815260200160002060040160009054906101000a900473ffffffffffffffffffffffffffffffffffffffff1673ffffffffffffffffffffffffffffffffffffffff166108fc60029081150290604051600060405180830381858888f193505050501580156117bb573d6000803e3d6000fd5b506005600083815260200190815260200160002060050160009054906101000a900473ffffffffffffffffffffffffffffffffffffffff1673ffffffffffffffffffffffffffffffffffffffff166108fc60029081150290604051600060405180830381858888f19350505050158015611839573d6000803e3d6000fd5b505b5050565b611847611e0e565b73ffffffffffffffffffffffffffffffffffffffff166000809054906101000a900473ffffffffffffffffffffffffffffffffffffffff1673ffffffffffffffffffffffffffffffffffffffff1614611908576040517f08c379a00000000000000000000000000000000000000000000000000000000081526004018080602001828103825260208152602001807f4f776e61626c653a2063616c6c6572206973206e6f7420746865206f776e657281525060200191505060405180910390fd5b611913600382611e16565b50565b813373ffffffffffffffffffffffffffffffffffffffff166005600083815260200190815260200160002060060160009054906101000a900473ffffffffffffffffffffffffffffffffffffffff1673ffffffffffffffffffffffffffffffffffffffff161461198557600080fd5b816005600085815260200190815260200160002060090181905550600060056000858152602001908152602001600020600a0160006101000a81548160ff021916908315150217905550505050565b6119dc611e0e565b73ffffffffffffffffffffffffffffffffffffffff166000809054906101000a900473ffffffffffffffffffffffffffffffffffffffff1673ffffffffffffffffffffffffffffffffffffffff1614611a9d576040517f08c379a00000000000000000000000000000000000000000000000000000000081526004018080602001828103825260208152602001807f4f776e61626c653a2063616c6c6572206973206e6f7420746865206f776e657281525060200191505060405180910390fd5b600073ffffffffffffffffffffffffffffffffffffffff168173ffffffffffffffffffffffffffffffffffffffff161415611b23576040517f08c379a000000000000000000000000000000000000000000000000000000000815260040180806020018281038252602681526020018061204d6026913960400191505060405180910390fd5b8073ffffffffffffffffffffffffffffffffffffffff166000809054906101000a900473ffffffffffffffffffffffffffffffffffffffff1673ffffffffffffffffffffffffffffffffffffffff167f8be0079c531659141344cd1fd0a4f28419497f9722a3daafe3b4186f6b6457e060405160405180910390a3806000806101000a81548173ffffffffffffffffffffffffffffffffffffffff021916908373ffffffffffffffffffffffffffffffffffffffff16021790555050565b803373ffffffffffffffffffffffffffffffffffffffff166005600083815260200190815260200160002060030160009054906101000a900473ffffffffffffffffffffffffffffffffffffffff1673ffffffffffffffffffffffffffffffffffffffff1614611c5057600080fd5b60006002544233604051602001808381526020018273ffffffffffffffffffffffffffffffffffffffff1673ffffffffffffffffffffffffffffffffffffffff1660601b8152601401925050506040516020818303038152906040528051906020012060001c81611cbd57fe5b0690506006600082815260200190815260200160002060009054906101000a900473ffffffffffffffffffffffffffffffffffffffff166005600085815260200190815260200160002060060160006101000a81548173ffffffffffffffffffffffffffffffffffffffff021916908373ffffffffffffffffffffffffffffffffffffffff160217905550600160056000858152602001908152602001600020600a0160006101000a81548160ff021916908315150217905550505050565b60008073ffffffffffffffffffffffffffffffffffffffff168273ffffffffffffffffffffffffffffffffffffffff161415611db757600080fd5b8260000160008373ffffffffffffffffffffffffffffffffffffffff1673ffffffffffffffffffffffffffffffffffffffff16815260200190815260200160002060009054906101000a900460ff16905092915050565b600033905090565b600073ffffffffffffffffffffffffffffffffffffffff168173ffffffffffffffffffffffffffffffffffffffff161415611e5057600080fd5b611e5a8282611d7c565b15611e6457600080fd5b60018260000160008373ffffffffffffffffffffffffffffffffffffffff1673ffffffffffffffffffffffffffffffffffffffff16815260200190815260200160002060006101000a81548160ff0219169083151502179055505050565b604051806101c001604052806000815260200160608152602001600073ffffffffffffffffffffffffffffffffffffffff168152602001600073ffffffffffffffffffffffffffffffffffffffff168152602001600073ffffffffffffffffffffffffffffffffffffffff168152602001600073ffffffffffffffffffffffffffffffffffffffff168152602001600073ffffffffffffffffffffffffffffffffffffffff1681526020016000151581526020016000151581526020016000815260200160008152602001600081526020016000151581526020016000151581525090565b828054600181600116156101000203166002900490600052602060002090601f016020900481019282601f10611fe857805160ff1916838001178555612016565b82800160010185558215612016579182015b82811115612015578251825591602001919060010190611ffa565b5b5090506120239190612027565b5090565b61204991905b8082111561204557600081600090555060010161202d565b5090565b9056fe4f776e61626c653a206e6577206f776e657220697320746865207a65726f2061646472657373a26469706673582212208e18cdcd8ac13f191d7069e9f1a3e9e1e4dffad634235de591c06a2b189e360f64736f6c63430006060033",
  "source": "pragma solidity ^0.6.0;\n\nimport \"@openzeppelin/contracts/access/Ownable.sol\";\nimport \"./Roles.sol\";\n\ncontract Paper is Ownable{\n    \n    struct Item {\n        uint pid;\n        string ipfsHash;\n        address college;\n        address payable student;\n        address payable valuator1;\n        address payable valuator2;\n        address payable reviewer;\n        bool isValuated1;\n        bool isValuated2;\n        uint marks1;\n        uint marks2;\n        uint marks3;\n        bool raiseDispute;\n        bool acceptedValidation;\n    }\n    \n    // Make a struct for college.\n    \n    uint public paperCount = 0;\n    uint public valuatorCount = 0;\n    \n    \n    Roles.Role private colleges;\n    Roles.Role private valuators;\n    \n    mapping(uint => Item) public papers;\n    \n    mapping(uint => address payable) public valuatorsAddresses;\n    \n    \n    modifier onlyCollege(){\n        require(Roles.has(colleges,msg.sender));\n        _;\n    }\n    \n    modifier onlyValuator(uint _paperId){\n        require(Roles.has(valuators,msg.sender) && (papers[_paperId].valuator1 == msg.sender || papers[_paperId].valuator2 == msg.sender));\n        _;\n    }\n    \n    modifier onlyStudent(uint _paperId){\n        require(papers[_paperId].student == msg.sender);\n        _;\n    }\n    \n    modifier onlyReviewer(uint _paperId){\n        require(papers[_paperId].reviewer == msg.sender);\n        _;\n    }\n    \n    \n    event paperSubmitted(uint _paperId);\n    \n    \n    constructor() public {\n    \n    }\n    \n    function addColleges(address _collegeAddress) public onlyOwner {\n        Roles.add(colleges, _collegeAddress);\n    }\n    \n    function addValuators(address payable _valuatorAddress) public onlyOwner {\n        Roles.add(valuators,_valuatorAddress);\n        valuatorsAddresses[valuatorCount] = _valuatorAddress;\n        valuatorCount++;\n    }\n    \n    \n    function addPaper(address payable _studentAddress, string memory _ipfsHash) public onlyCollege {\n        Item memory paper = Item(paperCount, _ipfsHash, msg.sender, _studentAddress,address(0),address(0),address(0),false,false,0,0,0,false,false);\n        \n        // Randomly select valuators \n        uint randomnumber = uint(keccak256(abi.encodePacked(now, msg.sender))) % valuatorCount;\n        \n        paper.valuator1 = valuatorsAddresses[randomnumber];\n        paper.valuator2 = valuatorsAddresses[randomnumber+1];\n      \n        \n        papers[paperCount] = paper;\n        paperCount++;\n        emit paperSubmitted(paperCount);\n    }\n    \n    \n    function addMarks(uint _paperId, uint marks) public {\n        if(papers[_paperId].valuator1 == msg.sender){\n            papers[_paperId].marks1 = marks;\n            papers[_paperId].isValuated1 = true;\n        }else{\n            papers[_paperId].marks2 = marks;\n            papers[_paperId].isValuated2 = true;\n        }\n    }\n    \n    \n    \n  function reviewerSubmit(uint _paperId, uint _marks) public onlyReviewer(_paperId){\n      papers[_paperId].marks3 = _marks;\n      papers[_paperId].raiseDispute = false;\n  }\n    \n   function getResultForStudent(uint _paperId) public view onlyStudent(_paperId) returns(uint,uint,uint,address,address,address){\n       Item memory paper = papers[_paperId];\n       return (paper.marks1, paper.marks2,paper.marks3,paper.valuator1,paper.valuator2,paper.reviewer);\n   }\n   \n   function studentRaiseDispute(uint _paperId) public onlyStudent(_paperId) {\n       uint randomnumber = uint(keccak256(abi.encodePacked(now, msg.sender))) % valuatorCount;\n       papers[_paperId].reviewer = valuatorsAddresses[randomnumber];\n       papers[_paperId].raiseDispute = true;\n   }\n    \n   function acceptValidation(uint _paperId) public onlyStudent(_paperId) {\n       \n      papers[_paperId].acceptedValidation = true;\n      if(papers[_paperId].raiseDispute){\n          papers[_paperId].reviewer.transfer(4);\n      }\n      else{\n          papers[_paperId].valuator1.transfer(2);\n          papers[_paperId].valuator2.transfer(2);\n      }\n   }\n    \n    \n    \n}",
  "sourcePath": "/home/asish/Desktop/sideProjects/socialmedia/contracts/Paper.sol",
  "compiler": {
    "name": "solc",
    "version": "0.6.6+commit.6c089d02.Emscripten.clang"
  },
  "schemaVersion": "3.0.23",
  "updatedAt": "2020-04-26T04:08:01.406Z",
  "networkType": "ethereum",
  "devdoc": {
    "methods": {
      "owner()": {
        "details": "Returns the address of the current owner."
      },
      "renounceOwnership()": {
        "details": "Leaves the contract without owner. It will not be possible to call `onlyOwner` functions anymore. Can only be called by the current owner.     * NOTE: Renouncing ownership will leave the contract without an owner, thereby removing any functionality that is only available to the owner."
      },
      "transferOwnership(address)": {
        "details": "Transfers ownership of the contract to a new account (`newOwner`). Can only be called by the current owner."
      }
    }
  },
  "userdoc": {
    "methods": {}
  }
}