{
  "contractName": "Paper",
  "abi": [
    {
      "inputs": [],
      "stateMutability": "nonpayable",
      "type": "constructor"
    },
    {
      "anonymous": false,
      "inputs": [
        {
          "indexed": true,
          "internalType": "address",
          "name": "previousOwner",
          "type": "address"
        },
        {
          "indexed": true,
          "internalType": "address",
          "name": "newOwner",
          "type": "address"
        }
      ],
      "name": "OwnershipTransferred",
      "type": "event"
    },
    {
      "anonymous": false,
      "inputs": [
        {
          "indexed": false,
          "internalType": "uint256",
          "name": "_paperId",
          "type": "uint256"
        }
      ],
      "name": "paperSubmitted",
      "type": "event"
    },
    {
      "inputs": [],
      "name": "owner",
      "outputs": [
        {
          "internalType": "address",
          "name": "",
          "type": "address"
        }
      ],
      "stateMutability": "view",
      "type": "function"
    },
    {
      "inputs": [],
      "name": "paperCount",
      "outputs": [
        {
          "internalType": "uint256",
          "name": "",
          "type": "uint256"
        }
      ],
      "stateMutability": "view",
      "type": "function"
    },
    {
      "inputs": [
        {
          "internalType": "uint256",
          "name": "",
          "type": "uint256"
        }
      ],
      "name": "papers",
      "outputs": [
        {
          "internalType": "uint256",
          "name": "pid",
          "type": "uint256"
        },
        {
          "internalType": "string",
          "name": "ipfsHash",
          "type": "string"
        },
        {
          "internalType": "address",
          "name": "college",
          "type": "address"
        },
        {
          "internalType": "address payable",
          "name": "student",
          "type": "address"
        },
        {
          "internalType": "address payable",
          "name": "valuator1",
          "type": "address"
        },
        {
          "internalType": "address payable",
          "name": "valuator2",
          "type": "address"
        },
        {
          "internalType": "address payable",
          "name": "reviewer",
          "type": "address"
        },
        {
          "internalType": "bool",
          "name": "isValuated1",
          "type": "bool"
        },
        {
          "internalType": "bool",
          "name": "isValuated2",
          "type": "bool"
        },
        {
          "internalType": "uint256",
          "name": "marks1",
          "type": "uint256"
        },
        {
          "internalType": "uint256",
          "name": "marks2",
          "type": "uint256"
        },
        {
          "internalType": "uint256",
          "name": "marks3",
          "type": "uint256"
        },
        {
          "internalType": "bool",
          "name": "raiseDispute",
          "type": "bool"
        },
        {
          "internalType": "bool",
          "name": "acceptedValidation",
          "type": "bool"
        }
      ],
      "stateMutability": "view",
      "type": "function"
    },
    {
      "inputs": [],
      "name": "renounceOwnership",
      "outputs": [],
      "stateMutability": "nonpayable",
      "type": "function"
    },
    {
      "inputs": [
        {
          "internalType": "address",
          "name": "newOwner",
          "type": "address"
        }
      ],
      "name": "transferOwnership",
      "outputs": [],
      "stateMutability": "nonpayable",
      "type": "function"
    },
    {
      "inputs": [],
      "name": "valuatorCount",
      "outputs": [
        {
          "internalType": "uint256",
          "name": "",
          "type": "uint256"
        }
      ],
      "stateMutability": "view",
      "type": "function"
    },
    {
      "inputs": [
        {
          "internalType": "address",
          "name": "_collegeAddress",
          "type": "address"
        }
      ],
      "name": "addColleges",
      "outputs": [],
      "stateMutability": "nonpayable",
      "type": "function"
    },
    {
      "inputs": [
        {
          "internalType": "address payable",
          "name": "_valuatorAddress",
          "type": "address"
        }
      ],
      "name": "addValuators",
      "outputs": [],
      "stateMutability": "nonpayable",
      "type": "function"
    },
    {
      "inputs": [
        {
          "internalType": "address payable",
          "name": "_studentAddress",
          "type": "address"
        },
        {
          "internalType": "string",
          "name": "_ipfsHash",
          "type": "string"
        }
      ],
      "name": "addPaper",
      "outputs": [],
      "stateMutability": "nonpayable",
      "type": "function"
    },
    {
      "inputs": [
        {
          "internalType": "uint256",
          "name": "_paperId",
          "type": "uint256"
        },
        {
          "internalType": "uint256",
          "name": "marks",
          "type": "uint256"
        }
      ],
      "name": "addMarks",
      "outputs": [],
      "stateMutability": "nonpayable",
      "type": "function"
    },
    {
      "inputs": [
        {
          "internalType": "uint256",
          "name": "_paperId",
          "type": "uint256"
        },
        {
          "internalType": "uint256",
          "name": "_marks",
          "type": "uint256"
        }
      ],
      "name": "reviewerSubmit",
      "outputs": [],
      "stateMutability": "nonpayable",
      "type": "function"
    },
    {
      "inputs": [
        {
          "internalType": "uint256",
          "name": "_paperId",
          "type": "uint256"
        }
      ],
      "name": "getResultForStudent",
      "outputs": [
        {
          "internalType": "uint256",
          "name": "",
          "type": "uint256"
        },
        {
          "internalType": "uint256",
          "name": "",
          "type": "uint256"
        },
        {
          "internalType": "uint256",
          "name": "",
          "type": "uint256"
        }
      ],
      "stateMutability": "view",
      "type": "function"
    },
    {
      "inputs": [
        {
          "internalType": "uint256",
          "name": "_paperId",
          "type": "uint256"
        }
      ],
      "name": "studentRaiseDispute",
      "outputs": [],
      "stateMutability": "nonpayable",
      "type": "function"
    },
    {
      "inputs": [
        {
          "internalType": "uint256",
          "name": "_paperId",
          "type": "uint256"
        }
      ],
      "name": "acceptValidation",
      "outputs": [],
      "stateMutability": "nonpayable",
      "type": "function"
    }
  ],
  "bytecode": "0x60806040526000600155600060025534801561001a57600080fd5b50600061002b6100ce60201b60201c565b9050806000806101000a81548173ffffffffffffffffffffffffffffffffffffffff021916908373ffffffffffffffffffffffffffffffffffffffff1602179055508073ffffffffffffffffffffffffffffffffffffffff16600073ffffffffffffffffffffffffffffffffffffffff167f8be0079c531659141344cd1fd0a4f28419497f9722a3daafe3b4186f6b6457e060405160405180910390a3506100d6565b600033905090565b611ffa806100e56000396000f3fe608060405234801561001057600080fd5b50600436106100ea5760003560e01c8063a092458d1161008c578063d6334dca11610066578063d6334dca14610542578063d9686ffc14610586578063f2fde38b146105be578063fba2a29314610602576100ea565b8063a092458d146104be578063a56c2cb9146104f6578063c9ced54a14610514576100ea565b8063715018a6116100c8578063715018a6146104085780637b7e866d1461041257806389cc2d8d146104565780638da5cb5b14610474576100ea565b80632720a522146100ef57806346d67182146101ca5780635e775a271461021a575b600080fd5b6101c86004803603604081101561010557600080fd5b81019080803573ffffffffffffffffffffffffffffffffffffffff1690602001909291908035906020019064010000000081111561014257600080fd5b82018360208201111561015457600080fd5b8035906020019184600183028401116401000000008311171561017657600080fd5b91908080601f016020809104026020016040519081016040528093929190818152602001838380828437600081840152601f19601f820116905080830192505050505050509192919290505050610630565b005b6101f6600480360360208110156101e057600080fd5b8101908080359060200190929190505050610ada565b60405180848152602001838152602001828152602001935050505060405180910390f35b6102466004803603602081101561023057600080fd5b8101908080359060200190929190505050610e7c565b604051808f8152602001806020018e73ffffffffffffffffffffffffffffffffffffffff1673ffffffffffffffffffffffffffffffffffffffff1681526020018d73ffffffffffffffffffffffffffffffffffffffff1673ffffffffffffffffffffffffffffffffffffffff1681526020018c73ffffffffffffffffffffffffffffffffffffffff1673ffffffffffffffffffffffffffffffffffffffff1681526020018b73ffffffffffffffffffffffffffffffffffffffff1673ffffffffffffffffffffffffffffffffffffffff1681526020018a73ffffffffffffffffffffffffffffffffffffffff1673ffffffffffffffffffffffffffffffffffffffff1681526020018915151515815260200188151515158152602001878152602001868152602001858152602001841515151581526020018315151515815260200182810382528f818151815260200191508051906020019080838360005b838110156103c05780820151818401526020810190506103a5565b50505050905090810190601f1680156103ed5780820380516001836020036101000a031916815260200191505b509f5050505050505050505050505050505060405180910390f35b610410611054565b005b6104546004803603602081101561042857600080fd5b81019080803573ffffffffffffffffffffffffffffffffffffffff1690602001909291905050506111dc565b005b61045e611319565b6040518082815260200191505060405180910390f35b61047c61131f565b604051808273ffffffffffffffffffffffffffffffffffffffff1673ffffffffffffffffffffffffffffffffffffffff16815260200191505060405180910390f35b6104f4600480360360408110156104d457600080fd5b810190808035906020019092919080359060200190929190505050611348565b005b6104fe611540565b6040518082815260200191505060405180910390f35b6105406004803603602081101561052a57600080fd5b8101908080359060200190929190505050611546565b005b6105846004803603602081101561055857600080fd5b81019080803573ffffffffffffffffffffffffffffffffffffffff169060200190929190505050611791565b005b6105bc6004803603604081101561059c57600080fd5b810190808035906020019092919080359060200190929190505050611868565b005b610600600480360360208110156105d457600080fd5b81019080803573ffffffffffffffffffffffffffffffffffffffff169060200190929190505050611926565b005b61062e6004803603602081101561061857600080fd5b8101908080359060200190929190505050611b33565b005b61063b600333611cce565b61064457600080fd5b61064c611e14565b604051806101c0016040528060015481526020018381526020013373ffffffffffffffffffffffffffffffffffffffff1681526020018473ffffffffffffffffffffffffffffffffffffffff168152602001600073ffffffffffffffffffffffffffffffffffffffff168152602001600073ffffffffffffffffffffffffffffffffffffffff168152602001600073ffffffffffffffffffffffffffffffffffffffff1681526020016000151581526020016000151581526020016000815260200160008152602001600081526020016000151581526020016000151581525090506006600080815260200190815260200160002060009054906101000a900473ffffffffffffffffffffffffffffffffffffffff1660056000600154815260200190815260200160002060040160006101000a81548173ffffffffffffffffffffffffffffffffffffffff021916908373ffffffffffffffffffffffffffffffffffffffff160217905550600660006001815260200190815260200160002060009054906101000a900473ffffffffffffffffffffffffffffffffffffffff1660056000600154815260200190815260200160002060050160006101000a81548173ffffffffffffffffffffffffffffffffffffffff021916908373ffffffffffffffffffffffffffffffffffffffff1602179055508060056000600154815260200190815260200160002060008201518160000155602082015181600101908051906020019061087f929190611ef9565b5060408201518160020160006101000a81548173ffffffffffffffffffffffffffffffffffffffff021916908373ffffffffffffffffffffffffffffffffffffffff16021790555060608201518160030160006101000a81548173ffffffffffffffffffffffffffffffffffffffff021916908373ffffffffffffffffffffffffffffffffffffffff16021790555060808201518160040160006101000a81548173ffffffffffffffffffffffffffffffffffffffff021916908373ffffffffffffffffffffffffffffffffffffffff16021790555060a08201518160050160006101000a81548173ffffffffffffffffffffffffffffffffffffffff021916908373ffffffffffffffffffffffffffffffffffffffff16021790555060c08201518160060160006101000a81548173ffffffffffffffffffffffffffffffffffffffff021916908373ffffffffffffffffffffffffffffffffffffffff16021790555060e08201518160060160146101000a81548160ff0219169083151502179055506101008201518160060160156101000a81548160ff02191690831515021790555061012082015181600701556101408201518160080155610160820151816009015561018082015181600a0160006101000a81548160ff0219169083151502179055506101a082015181600a0160016101000a81548160ff0219169083151502179055509050506001600081548092919060010191905055507fe5f7a4c8301d66c316b4c35717ecf08d8dba8bf177233126ff08f6b523c1c4236001546040518082815260200191505060405180910390a1505050565b6000806000833373ffffffffffffffffffffffffffffffffffffffff166005600083815260200190815260200160002060030160009054906101000a900473ffffffffffffffffffffffffffffffffffffffff1673ffffffffffffffffffffffffffffffffffffffff1614610b4e57600080fd5b610b56611e14565b60056000878152602001908152602001600020604051806101c001604052908160008201548152602001600182018054600181600116156101000203166002900480601f016020809104026020016040519081016040528092919081815260200182805460018160011615610100020316600290048015610c185780601f10610bed57610100808354040283529160200191610c18565b820191906000526020600020905b815481529060010190602001808311610bfb57829003601f168201915b505050505081526020016002820160009054906101000a900473ffffffffffffffffffffffffffffffffffffffff1673ffffffffffffffffffffffffffffffffffffffff1673ffffffffffffffffffffffffffffffffffffffff1681526020016003820160009054906101000a900473ffffffffffffffffffffffffffffffffffffffff1673ffffffffffffffffffffffffffffffffffffffff1673ffffffffffffffffffffffffffffffffffffffff1681526020016004820160009054906101000a900473ffffffffffffffffffffffffffffffffffffffff1673ffffffffffffffffffffffffffffffffffffffff1673ffffffffffffffffffffffffffffffffffffffff1681526020016005820160009054906101000a900473ffffffffffffffffffffffffffffffffffffffff1673ffffffffffffffffffffffffffffffffffffffff1673ffffffffffffffffffffffffffffffffffffffff1681526020016006820160009054906101000a900473ffffffffffffffffffffffffffffffffffffffff1673ffffffffffffffffffffffffffffffffffffffff1673ffffffffffffffffffffffffffffffffffffffff1681526020016006820160149054906101000a900460ff161515151581526020016006820160159054906101000a900460ff16151515158152602001600782015481526020016008820154815260200160098201548152602001600a820160009054906101000a900460ff16151515158152602001600a820160019054906101000a900460ff161515151581525050905080610120015181610140015182610160015194509450945050509193909250565b6005602052806000526040600020600091509050806000015490806001018054600181600116156101000203166002900480601f016020809104026020016040519081016040528092919081815260200182805460018160011615610100020316600290048015610f2e5780601f10610f0357610100808354040283529160200191610f2e565b820191906000526020600020905b815481529060010190602001808311610f1157829003601f168201915b5050505050908060020160009054906101000a900473ffffffffffffffffffffffffffffffffffffffff16908060030160009054906101000a900473ffffffffffffffffffffffffffffffffffffffff16908060040160009054906101000a900473ffffffffffffffffffffffffffffffffffffffff16908060050160009054906101000a900473ffffffffffffffffffffffffffffffffffffffff16908060060160009054906101000a900473ffffffffffffffffffffffffffffffffffffffff16908060060160149054906101000a900460ff16908060060160159054906101000a900460ff169080600701549080600801549080600901549080600a0160009054906101000a900460ff169080600a0160019054906101000a900460ff1690508e565b61105c611d60565b73ffffffffffffffffffffffffffffffffffffffff166000809054906101000a900473ffffffffffffffffffffffffffffffffffffffff1673ffffffffffffffffffffffffffffffffffffffff161461111d576040517f08c379a00000000000000000000000000000000000000000000000000000000081526004018080602001828103825260208152602001807f4f776e61626c653a2063616c6c6572206973206e6f7420746865206f776e657281525060200191505060405180910390fd5b600073ffffffffffffffffffffffffffffffffffffffff166000809054906101000a900473ffffffffffffffffffffffffffffffffffffffff1673ffffffffffffffffffffffffffffffffffffffff167f8be0079c531659141344cd1fd0a4f28419497f9722a3daafe3b4186f6b6457e060405160405180910390a360008060006101000a81548173ffffffffffffffffffffffffffffffffffffffff021916908373ffffffffffffffffffffffffffffffffffffffff160217905550565b6111e4611d60565b73ffffffffffffffffffffffffffffffffffffffff166000809054906101000a900473ffffffffffffffffffffffffffffffffffffffff1673ffffffffffffffffffffffffffffffffffffffff16146112a5576040517f08c379a00000000000000000000000000000000000000000000000000000000081526004018080602001828103825260208152602001807f4f776e61626c653a2063616c6c6572206973206e6f7420746865206f776e657281525060200191505060405180910390fd5b6112b0600482611d68565b8060066000600254815260200190815260200160002060006101000a81548173ffffffffffffffffffffffffffffffffffffffff021916908373ffffffffffffffffffffffffffffffffffffffff16021790555060026000815480929190600101919050555050565b60025481565b60008060009054906101000a900473ffffffffffffffffffffffffffffffffffffffff16905090565b81611354600433611cce565b61135d57600080fd5b3373ffffffffffffffffffffffffffffffffffffffff166005600083815260200190815260200160002060040160009054906101000a900473ffffffffffffffffffffffffffffffffffffffff1673ffffffffffffffffffffffffffffffffffffffff16148061142e57503373ffffffffffffffffffffffffffffffffffffffff166005600083815260200190815260200160002060050160009054906101000a900473ffffffffffffffffffffffffffffffffffffffff1673ffffffffffffffffffffffffffffffffffffffff16145b61143757600080fd5b3373ffffffffffffffffffffffffffffffffffffffff166005600085815260200190815260200160002060040160009054906101000a900473ffffffffffffffffffffffffffffffffffffffff1673ffffffffffffffffffffffffffffffffffffffff1614156114f05781600560008581526020019081526020016000206007018190555060016005600085815260200190815260200160002060060160146101000a81548160ff02191690831515021790555061153b565b81600560008581526020019081526020016000206008018190555060016005600085815260200190815260200160002060060160156101000a81548160ff0219169083151502179055505b505050565b60015481565b803373ffffffffffffffffffffffffffffffffffffffff166005600083815260200190815260200160002060030160009054906101000a900473ffffffffffffffffffffffffffffffffffffffff1673ffffffffffffffffffffffffffffffffffffffff16146115b557600080fd5b600160056000848152602001908152602001600020600a0160016101000a81548160ff02191690831515021790555060056000838152602001908152602001600020600a0160009054906101000a900460ff1615611690576005600083815260200190815260200160002060060160009054906101000a900473ffffffffffffffffffffffffffffffffffffffff1673ffffffffffffffffffffffffffffffffffffffff166108fc60049081150290604051600060405180830381858888f1935050505015801561168a573d6000803e3d6000fd5b5061178d565b6005600083815260200190815260200160002060040160009054906101000a900473ffffffffffffffffffffffffffffffffffffffff1673ffffffffffffffffffffffffffffffffffffffff166108fc60029081150290604051600060405180830381858888f1935050505015801561170d573d6000803e3d6000fd5b506005600083815260200190815260200160002060050160009054906101000a900473ffffffffffffffffffffffffffffffffffffffff1673ffffffffffffffffffffffffffffffffffffffff166108fc60029081150290604051600060405180830381858888f1935050505015801561178b573d6000803e3d6000fd5b505b5050565b611799611d60565b73ffffffffffffffffffffffffffffffffffffffff166000809054906101000a900473ffffffffffffffffffffffffffffffffffffffff1673ffffffffffffffffffffffffffffffffffffffff161461185a576040517f08c379a00000000000000000000000000000000000000000000000000000000081526004018080602001828103825260208152602001807f4f776e61626c653a2063616c6c6572206973206e6f7420746865206f776e657281525060200191505060405180910390fd5b611865600382611d68565b50565b813373ffffffffffffffffffffffffffffffffffffffff166005600083815260200190815260200160002060060160009054906101000a900473ffffffffffffffffffffffffffffffffffffffff1673ffffffffffffffffffffffffffffffffffffffff16146118d757600080fd5b816005600085815260200190815260200160002060090181905550600060056000858152602001908152602001600020600a0160006101000a81548160ff021916908315150217905550505050565b61192e611d60565b73ffffffffffffffffffffffffffffffffffffffff166000809054906101000a900473ffffffffffffffffffffffffffffffffffffffff1673ffffffffffffffffffffffffffffffffffffffff16146119ef576040517f08c379a00000000000000000000000000000000000000000000000000000000081526004018080602001828103825260208152602001807f4f776e61626c653a2063616c6c6572206973206e6f7420746865206f776e657281525060200191505060405180910390fd5b600073ffffffffffffffffffffffffffffffffffffffff168173ffffffffffffffffffffffffffffffffffffffff161415611a75576040517f08c379a0000000000000000000000000000000000000000000000000000000008152600401808060200182810382526026815260200180611f9f6026913960400191505060405180910390fd5b8073ffffffffffffffffffffffffffffffffffffffff166000809054906101000a900473ffffffffffffffffffffffffffffffffffffffff1673ffffffffffffffffffffffffffffffffffffffff167f8be0079c531659141344cd1fd0a4f28419497f9722a3daafe3b4186f6b6457e060405160405180910390a3806000806101000a81548173ffffffffffffffffffffffffffffffffffffffff021916908373ffffffffffffffffffffffffffffffffffffffff16021790555050565b803373ffffffffffffffffffffffffffffffffffffffff166005600083815260200190815260200160002060030160009054906101000a900473ffffffffffffffffffffffffffffffffffffffff1673ffffffffffffffffffffffffffffffffffffffff1614611ba257600080fd5b60006002544233604051602001808381526020018273ffffffffffffffffffffffffffffffffffffffff1673ffffffffffffffffffffffffffffffffffffffff1660601b8152601401925050506040516020818303038152906040528051906020012060001c81611c0f57fe5b0690506006600082815260200190815260200160002060009054906101000a900473ffffffffffffffffffffffffffffffffffffffff166005600085815260200190815260200160002060060160006101000a81548173ffffffffffffffffffffffffffffffffffffffff021916908373ffffffffffffffffffffffffffffffffffffffff160217905550600160056000858152602001908152602001600020600a0160006101000a81548160ff021916908315150217905550505050565b60008073ffffffffffffffffffffffffffffffffffffffff168273ffffffffffffffffffffffffffffffffffffffff161415611d0957600080fd5b8260000160008373ffffffffffffffffffffffffffffffffffffffff1673ffffffffffffffffffffffffffffffffffffffff16815260200190815260200160002060009054906101000a900460ff16905092915050565b600033905090565b600073ffffffffffffffffffffffffffffffffffffffff168173ffffffffffffffffffffffffffffffffffffffff161415611da257600080fd5b611dac8282611cce565b15611db657600080fd5b60018260000160008373ffffffffffffffffffffffffffffffffffffffff1673ffffffffffffffffffffffffffffffffffffffff16815260200190815260200160002060006101000a81548160ff0219169083151502179055505050565b604051806101c001604052806000815260200160608152602001600073ffffffffffffffffffffffffffffffffffffffff168152602001600073ffffffffffffffffffffffffffffffffffffffff168152602001600073ffffffffffffffffffffffffffffffffffffffff168152602001600073ffffffffffffffffffffffffffffffffffffffff168152602001600073ffffffffffffffffffffffffffffffffffffffff1681526020016000151581526020016000151581526020016000815260200160008152602001600081526020016000151581526020016000151581525090565b828054600181600116156101000203166002900490600052602060002090601f016020900481019282601f10611f3a57805160ff1916838001178555611f68565b82800160010185558215611f68579182015b82811115611f67578251825591602001919060010190611f4c565b5b509050611f759190611f79565b5090565b611f9b91905b80821115611f97576000816000905550600101611f7f565b5090565b9056fe4f776e61626c653a206e6577206f776e657220697320746865207a65726f2061646472657373a2646970667358221220ab00303fac3e8f71e4d825d1072264a27173c7f073209afed15c77f228f8c0d564736f6c63430006060033",
  "source": "pragma solidity ^0.6.0;\n\nimport \"@openzeppelin/contracts/access/Ownable.sol\";\nimport \"./Roles.sol\";\n\ncontract Paper is Ownable{\n    \n    struct Item {\n        uint pid;\n        string ipfsHash;\n        address college;\n        address payable student;\n        address payable valuator1;\n        address payable valuator2;\n        address payable reviewer;\n        bool isValuated1;\n        bool isValuated2;\n        uint marks1;\n        uint marks2;\n        uint marks3;\n        bool raiseDispute;\n        bool acceptedValidation;\n    }\n    \n    \n    uint public paperCount = 0;\n    uint public valuatorCount = 0;\n    \n    \n    Roles.Role private colleges;\n    Roles.Role private valuators;\n    \n    mapping(uint => Item) public papers;\n    \n    mapping(uint => address payable) valuatorsAddresses;\n    \n    \n    modifier onlyCollege(){\n        require(Roles.has(colleges,msg.sender));\n        _;\n    }\n    \n    modifier onlyValuator(uint _paperId){\n        require(Roles.has(valuators,msg.sender));\n        require(papers[_paperId].valuator1 == msg.sender || papers[_paperId].valuator2 == msg.sender);\n        _;\n    }\n    \n    modifier onlyStudent(uint _paperId){\n        require(papers[_paperId].student == msg.sender);\n        _;\n    }\n    \n    modifier onlyReviewer(uint _paperId){\n        require(papers[_paperId].reviewer == msg.sender);\n        _;\n    }\n    \n    \n    event paperSubmitted(uint _paperId);\n    \n    \n    constructor() public {\n    \n    }\n    \n    function addColleges(address _collegeAddress) public onlyOwner {\n        Roles.add(colleges, _collegeAddress);\n    }\n    \n    function addValuators(address payable _valuatorAddress) public onlyOwner {\n        Roles.add(valuators,_valuatorAddress);\n        valuatorsAddresses[valuatorCount] = _valuatorAddress;\n        valuatorCount++;\n    }\n    \n    \n    function addPaper(address payable _studentAddress, string memory _ipfsHash) public onlyCollege {\n        Item memory paper = Item(paperCount, _ipfsHash, msg.sender, _studentAddress,address(0),address(0),address(0),false,false,0,0,0,false,false);\n        \n        // Randomly select valuators \n        // uint randomnumber = uint(keccak256(abi.encodePacked(now, msg.sender))) % valuatorCount;\n        \n        papers[paperCount].valuator1 = valuatorsAddresses[0];\n        papers[paperCount].valuator2 = valuatorsAddresses[1];\n      \n        \n        papers[paperCount] = paper;\n        paperCount++;\n        emit paperSubmitted(paperCount);\n    }\n    \n    \n    function addMarks(uint _paperId, uint marks) public onlyValuator(_paperId) {\n        if(papers[_paperId].valuator1 == msg.sender){\n            papers[_paperId].marks1 = marks;\n            papers[_paperId].isValuated1 = true;\n        }else{\n            papers[_paperId].marks2 = marks;\n            papers[_paperId].isValuated2 = true;\n        }\n    }\n    \n    \n    \n  function reviewerSubmit(uint _paperId, uint _marks) public onlyReviewer(_paperId){\n      papers[_paperId].marks3 = _marks;\n      papers[_paperId].raiseDispute = false;\n  }\n    \n   function getResultForStudent(uint _paperId) public view onlyStudent(_paperId) returns(uint,uint,uint){\n       Item memory paper = papers[_paperId];\n       return (paper.marks1, paper.marks2,paper.marks3);\n   }\n   \n   function studentRaiseDispute(uint _paperId) public onlyStudent(_paperId) {\n       uint randomnumber = uint(keccak256(abi.encodePacked(now, msg.sender))) % valuatorCount;\n       papers[_paperId].reviewer = valuatorsAddresses[randomnumber];\n       papers[_paperId].raiseDispute = true;\n   }\n    \n   function acceptValidation(uint _paperId) public onlyStudent(_paperId) {\n       \n      papers[_paperId].acceptedValidation = true;\n      if(papers[_paperId].raiseDispute){\n          papers[_paperId].reviewer.transfer(4);\n      }\n      else{\n          papers[_paperId].valuator1.transfer(2);\n          papers[_paperId].valuator2.transfer(2);\n      }\n   }\n    \n    \n    \n}",
  "sourcePath": "/home/asish/Desktop/sideProjects/socialmedia/contracts/Paper.sol",
  "compiler": {
    "name": "solc",
    "version": "0.6.6+commit.6c089d02.Emscripten.clang"
  },
  "schemaVersion": "3.0.23",
  "updatedAt": "2020-04-25T08:54:46.663Z",
  "devdoc": {
    "methods": {
      "owner()": {
        "details": "Returns the address of the current owner."
      },
      "renounceOwnership()": {
        "details": "Leaves the contract without owner. It will not be possible to call `onlyOwner` functions anymore. Can only be called by the current owner.     * NOTE: Renouncing ownership will leave the contract without an owner, thereby removing any functionality that is only available to the owner."
      },
      "transferOwnership(address)": {
        "details": "Transfers ownership of the contract to a new account (`newOwner`). Can only be called by the current owner."
      }
    }
  },
  "userdoc": {
    "methods": {}
  }
}